{
  "contractName": "DAIOracle",
  "abi": [
    {
      "inputs": [
        {
          "internalType": "address",
          "name": "factory",
          "type": "address"
        },
        {
          "internalType": "address",
          "name": "tokenA",
          "type": "address"
        },
        {
          "internalType": "address",
          "name": "tokenB",
          "type": "address"
        },
        {
          "internalType": "address",
          "name": "dai",
          "type": "address"
        }
      ],
      "stateMutability": "nonpayable",
      "type": "constructor"
    },
    {
      "inputs": [],
      "name": "PERIOD",
      "outputs": [
        {
          "internalType": "uint256",
          "name": "",
          "type": "uint256"
        }
      ],
      "stateMutability": "view",
      "type": "function"
    },
    {
      "inputs": [],
      "name": "blockTimestampLast",
      "outputs": [
        {
          "internalType": "uint32",
          "name": "",
          "type": "uint32"
        }
      ],
      "stateMutability": "view",
      "type": "function"
    },
    {
      "inputs": [],
      "name": "price0Average",
      "outputs": [
        {
          "internalType": "uint224",
          "name": "_x",
          "type": "uint224"
        }
      ],
      "stateMutability": "view",
      "type": "function"
    },
    {
      "inputs": [],
      "name": "price0CumulativeLast",
      "outputs": [
        {
          "internalType": "uint256",
          "name": "",
          "type": "uint256"
        }
      ],
      "stateMutability": "view",
      "type": "function"
    },
    {
      "inputs": [],
      "name": "price1Average",
      "outputs": [
        {
          "internalType": "uint224",
          "name": "_x",
          "type": "uint224"
        }
      ],
      "stateMutability": "view",
      "type": "function"
    },
    {
      "inputs": [],
      "name": "price1CumulativeLast",
      "outputs": [
        {
          "internalType": "uint256",
          "name": "",
          "type": "uint256"
        }
      ],
      "stateMutability": "view",
      "type": "function"
    },
    {
      "inputs": [],
      "name": "priceDAI1Average",
      "outputs": [
        {
          "internalType": "uint224",
          "name": "_x",
          "type": "uint224"
        }
      ],
      "stateMutability": "view",
      "type": "function"
    },
    {
      "inputs": [],
      "name": "priceDAI1CumulativeLast",
      "outputs": [
        {
          "internalType": "uint256",
          "name": "",
          "type": "uint256"
        }
      ],
      "stateMutability": "view",
      "type": "function"
    },
    {
      "inputs": [],
      "name": "priceDAI2Average",
      "outputs": [
        {
          "internalType": "uint224",
          "name": "_x",
          "type": "uint224"
        }
      ],
      "stateMutability": "view",
      "type": "function"
    },
    {
      "inputs": [],
      "name": "priceDAI2CumulativeLast",
      "outputs": [
        {
          "internalType": "uint256",
          "name": "",
          "type": "uint256"
        }
      ],
      "stateMutability": "view",
      "type": "function"
    },
    {
      "inputs": [],
      "name": "token0",
      "outputs": [
        {
          "internalType": "address",
          "name": "",
          "type": "address"
        }
      ],
      "stateMutability": "view",
      "type": "function"
    },
    {
      "inputs": [],
      "name": "token1",
      "outputs": [
        {
          "internalType": "address",
          "name": "",
          "type": "address"
        }
      ],
      "stateMutability": "view",
      "type": "function"
    },
    {
      "inputs": [],
      "name": "tokenDAI",
      "outputs": [
        {
          "internalType": "address",
          "name": "",
          "type": "address"
        }
      ],
      "stateMutability": "view",
      "type": "function"
    },
    {
      "inputs": [],
      "name": "update",
      "outputs": [],
      "stateMutability": "nonpayable",
      "type": "function"
    },
    {
      "inputs": [
        {
          "internalType": "address",
          "name": "token",
          "type": "address"
        },
        {
          "internalType": "uint256",
          "name": "amountIn",
          "type": "uint256"
        }
      ],
      "name": "consult",
      "outputs": [
        {
          "internalType": "uint256",
          "name": "amountOut",
          "type": "uint256"
        }
      ],
      "stateMutability": "view",
      "type": "function"
    },
    {
      "inputs": [
        {
          "internalType": "uint256",
          "name": "amountIn",
          "type": "uint256"
        }
      ],
      "name": "consultDAI",
      "outputs": [
        {
          "internalType": "uint256",
          "name": "amount1Out",
          "type": "uint256"
        },
        {
          "internalType": "uint256",
          "name": "amount2Out",
          "type": "uint256"
        }
      ],
      "stateMutability": "view",
      "type": "function"
    }
  ],
  "bytecode": "0x6101206040523480156200001257600080fd5b506040516200220438038062002204833981810160405260808110156200003857600080fd5b81019080805190602001909291908051906020019092919080519060200190929190805190602001909291905050506000620000818585846200084e60201b620012c01760201c565b90508073ffffffffffffffffffffffffffffffffffffffff1660808173ffffffffffffffffffffffffffffffffffffffff1660601b815250508073ffffffffffffffffffffffffffffffffffffffff16630dfe16816040518163ffffffff1660e01b815260040160206040518083038186803b1580156200010157600080fd5b505afa15801562000116573d6000803e3d6000fd5b505050506040513d60208110156200012d57600080fd5b810190808051906020019092919050505073ffffffffffffffffffffffffffffffffffffffff1660c08173ffffffffffffffffffffffffffffffffffffffff1660601b815250508073ffffffffffffffffffffffffffffffffffffffff1663d21220a76040518163ffffffff1660e01b815260040160206040518083038186803b158015620001bb57600080fd5b505afa158015620001d0573d6000803e3d6000fd5b505050506040513d6020811015620001e757600080fd5b810190808051906020019092919050505073ffffffffffffffffffffffffffffffffffffffff166101008173ffffffffffffffffffffffffffffffffffffffff1660601b815250508073ffffffffffffffffffffffffffffffffffffffff16635909c0d56040518163ffffffff1660e01b815260040160206040518083038186803b1580156200027657600080fd5b505afa1580156200028b573d6000803e3d6000fd5b505050506040513d6020811015620002a257600080fd5b81019080805190602001909291905050506000819055508073ffffffffffffffffffffffffffffffffffffffff16635a3d54936040518163ffffffff1660e01b815260040160206040518083038186803b1580156200030057600080fd5b505afa15801562000315573d6000803e3d6000fd5b505050506040513d60208110156200032c57600080fd5b81019080805190602001909291905050506002819055506000808273ffffffffffffffffffffffffffffffffffffffff16630902f1ac6040518163ffffffff1660e01b815260040160606040518083038186803b1580156200038d57600080fd5b505afa158015620003a2573d6000803e3d6000fd5b505050506040513d6060811015620003b957600080fd5b81019080805190602001909291908051906020019092919080519060200190929190505050600460008291906101000a81548163ffffffff021916908363ffffffff1602179055508193508294505050506000826dffffffffffffffffffffffffffff16141580156200043d57506000816dffffffffffffffffffffffffffff1614155b620004b0576040517f08c379a00000000000000000000000000000000000000000000000000000000081526004018080602001828103825260208152602001807f4578616d706c654f7261636c6553696d706c653a204e4f5f524553455256455381525060200191505060405180910390fd5b6000620004ca8887876200084e60201b620012c01760201c565b90508073ffffffffffffffffffffffffffffffffffffffff1660a08173ffffffffffffffffffffffffffffffffffffffff1660601b815250508073ffffffffffffffffffffffffffffffffffffffff16630dfe16816040518163ffffffff1660e01b815260040160206040518083038186803b1580156200054a57600080fd5b505afa1580156200055f573d6000803e3d6000fd5b505050506040513d60208110156200057657600080fd5b810190808051906020019092919050505073ffffffffffffffffffffffffffffffffffffffff1660e08173ffffffffffffffffffffffffffffffffffffffff1660601b815250508073ffffffffffffffffffffffffffffffffffffffff16635909c0d56040518163ffffffff1660e01b815260040160206040518083038186803b1580156200060457600080fd5b505afa15801562000619573d6000803e3d6000fd5b505050506040513d60208110156200063057600080fd5b81019080805190602001909291905050506001819055508073ffffffffffffffffffffffffffffffffffffffff16635a3d54936040518163ffffffff1660e01b815260040160206040518083038186803b1580156200068e57600080fd5b505afa158015620006a3573d6000803e3d6000fd5b505050506040513d6020811015620006ba57600080fd5b81019080805190602001909291905050506003819055506000808273ffffffffffffffffffffffffffffffffffffffff16630902f1ac6040518163ffffffff1660e01b815260040160606040518083038186803b1580156200071b57600080fd5b505afa15801562000730573d6000803e3d6000fd5b505050506040513d60608110156200074757600080fd5b81019080805190602001909291908051906020019092919080519060200190929190505050600460008291906101000a81548163ffffffff021916908363ffffffff1602179055508193508294505050506000826dffffffffffffffffffffffffffff1614158015620007cb57506000816dffffffffffffffffffffffffffff1614155b6200083e576040517f08c379a00000000000000000000000000000000000000000000000000000000081526004018080602001828103825260208152602001807f4578616d706c654f7261636c6553696d706c653a204e4f5f524553455256455381525060200191505060405180910390fd5b5050505050505050505062000b2d565b6000806000620008658585620009b160201b60201c565b91509150858282604051602001808373ffffffffffffffffffffffffffffffffffffffff1673ffffffffffffffffffffffffffffffffffffffff1660601b81526014018273ffffffffffffffffffffffffffffffffffffffff1673ffffffffffffffffffffffffffffffffffffffff1660601b8152601401925050506040516020818303038152906040528051906020012060405160200180807fff000000000000000000000000000000000000000000000000000000000000008152506001018373ffffffffffffffffffffffffffffffffffffffff1673ffffffffffffffffffffffffffffffffffffffff1660601b8152601401828152602001807f96e8ac4277198ff8b6f785478aa9a39f403cb768dd02cbee326c3e7da348845f815250602001925050506040516020818303038152906040528051906020012060001c925050509392505050565b6000808273ffffffffffffffffffffffffffffffffffffffff168473ffffffffffffffffffffffffffffffffffffffff16141562000a3b576040517f08c379a0000000000000000000000000000000000000000000000000000000008152600401808060200182810382526025815260200180620021df6025913960400191505060405180910390fd5b8273ffffffffffffffffffffffffffffffffffffffff168473ffffffffffffffffffffffffffffffffffffffff161062000a7757828462000a7a565b83835b8092508193505050600073ffffffffffffffffffffffffffffffffffffffff168273ffffffffffffffffffffffffffffffffffffffff16141562000b26576040517f08c379a000000000000000000000000000000000000000000000000000000000815260040180806020018281038252601e8152602001807f556e697377617056324c6962726172793a205a45524f5f41444452455353000081525060200191505060405180910390fd5b9250929050565b60805160601c60a05160601c60c05160601c60e05160601c6101005160601c61165962000b8660003980610db552508061074a5280610dd95250806104c2528061064652508061095052508061091c52506116596000f3fe608060405234801561001057600080fd5b50600436106101005760003560e01c8063a6bb453911610097578063c5700a0211610066578063c5700a02146103e4578063cea8b27f1461040e578063d21220a714610458578063da8c7f54146104a257610100565b8063a6bb4539146102f4578063b27809661461034e578063b4d1d7951461036c578063c11859781461038a57610100565b80635909c0d5116100d35780635909c0d5146102545780635a3d5493146102725780635e6aaf2c14610290578063a2e62045146102ea57610100565b80630dfe1681146101055780633aabd3af1461014f5780633ddac95314610198578063413d9b66146101fa575b600080fd5b61010d6104c0565b604051808273ffffffffffffffffffffffffffffffffffffffff1673ffffffffffffffffffffffffffffffffffffffff16815260200191505060405180910390f35b61017b6004803603602081101561016557600080fd5b81019080803590602001909291905050506104e4565b604051808381526020018281526020019250505060405180910390f35b6101e4600480360360408110156101ae57600080fd5b81019080803573ffffffffffffffffffffffffffffffffffffffff16906020019092919080359060200190929190505050610642565b6040518082815260200191505060405180910390f35b61020261089e565b60405180827bffffffffffffffffffffffffffffffffffffffffffffffffffffffff167bffffffffffffffffffffffffffffffffffffffffffffffffffffffff16815260200191505060405180910390f35b61025c6108d2565b6040518082815260200191505060405180910390f35b61027a6108d8565b6040518082815260200191505060405180910390f35b6102986108de565b60405180827bffffffffffffffffffffffffffffffffffffffffffffffffffffffff167bffffffffffffffffffffffffffffffffffffffffffffffffffffffff16815260200191505060405180910390f35b6102f2610912565b005b6102fc610d2a565b60405180827bffffffffffffffffffffffffffffffffffffffffffffffffffffffff167bffffffffffffffffffffffffffffffffffffffffffffffffffffffff16815260200191505060405180910390f35b610356610d5e565b6040518082815260200191505060405180910390f35b610374610d64565b6040518082815260200191505060405180910390f35b610392610d69565b60405180827bffffffffffffffffffffffffffffffffffffffffffffffffffffffff167bffffffffffffffffffffffffffffffffffffffffffffffffffffffff16815260200191505060405180910390f35b6103ec610d9d565b604051808263ffffffff1663ffffffff16815260200191505060405180910390f35b610416610db3565b604051808273ffffffffffffffffffffffffffffffffffffffff1673ffffffffffffffffffffffffffffffffffffffff16815260200191505060405180910390f35b610460610dd7565b604051808273ffffffffffffffffffffffffffffffffffffffff1673ffffffffffffffffffffffffffffffffffffffff16815260200191505060405180910390f35b6104aa610dfb565b6040518082815260200191505060405180910390f35b7f000000000000000000000000000000000000000000000000000000000000000081565b60008061057c6105778460076040518060200160405290816000820160009054906101000a90047bffffffffffffffffffffffffffffffffffffffffffffffffffffffff167bffffffffffffffffffffffffffffffffffffffffffffffffffffffff167bffffffffffffffffffffffffffffffffffffffffffffffffffffffff1681525050610e0190919063ffffffff16565b610ed7565b71ffffffffffffffffffffffffffffffffffff1691506106276106228460086040518060200160405290816000820160009054906101000a90047bffffffffffffffffffffffffffffffffffffffffffffffffffffffff167bffffffffffffffffffffffffffffffffffffffffffffffffffffffff167bffffffffffffffffffffffffffffffffffffffffffffffffffffffff1681525050610e0190919063ffffffff16565b610ed7565b71ffffffffffffffffffffffffffffffffffff169050915091565b60007f000000000000000000000000000000000000000000000000000000000000000073ffffffffffffffffffffffffffffffffffffffff168373ffffffffffffffffffffffffffffffffffffffff1614156107485761072d6107288360056040518060200160405290816000820160009054906101000a90047bffffffffffffffffffffffffffffffffffffffffffffffffffffffff167bffffffffffffffffffffffffffffffffffffffffffffffffffffffff167bffffffffffffffffffffffffffffffffffffffffffffffffffffffff1681525050610e0190919063ffffffff16565b610ed7565b71ffffffffffffffffffffffffffffffffffff169050610898565b7f000000000000000000000000000000000000000000000000000000000000000073ffffffffffffffffffffffffffffffffffffffff168373ffffffffffffffffffffffffffffffffffffffff16146107ec576040517f08c379a00000000000000000000000000000000000000000000000000000000081526004018080602001828103825260228152602001806115b86022913960400191505060405180910390fd5b61088161087c8360066040518060200160405290816000820160009054906101000a90047bffffffffffffffffffffffffffffffffffffffffffffffffffffffff167bffffffffffffffffffffffffffffffffffffffffffffffffffffffff167bffffffffffffffffffffffffffffffffffffffffffffffffffffffff1681525050610e0190919063ffffffff16565b610ed7565b71ffffffffffffffffffffffffffffffffffff1690505b92915050565b60088060000160009054906101000a90047bffffffffffffffffffffffffffffffffffffffffffffffffffffffff16905081565b60005481565b60015481565b60068060000160009054906101000a90047bffffffffffffffffffffffffffffffffffffffffffffffffffffffff16905081565b60008060006109407f0000000000000000000000000000000000000000000000000000000000000000610eec565b92509250925060008060006109747f0000000000000000000000000000000000000000000000000000000000000000610eec565b9250925092508063ffffffff168463ffffffff16146109fb576040517f08c379a000000000000000000000000000000000000000000000000000000000815260040180806020018281038252601b8152602001807f626c6f636b54696d657374616d70206d7573742062652073616d65000000000081525060200191505060405180910390fd5b6000600460009054906101000a900463ffffffff168503905060788163ffffffff161015610a74576040517f08c379a00000000000000000000000000000000000000000000000000000000081526004018080602001828103825260278152602001806115da6027913960400191505060405180910390fd5b60405180602001604052808263ffffffff166000548a0381610a9257fe5b047bffffffffffffffffffffffffffffffffffffffffffffffffffffffff16815250600560008201518160000160006101000a8154817bffffffffffffffffffffffffffffffffffffffffffffffffffffffff02191690837bffffffffffffffffffffffffffffffffffffffffffffffffffffffff16021790555090505060405180602001604052808263ffffffff16600154870381610b2e57fe5b047bffffffffffffffffffffffffffffffffffffffffffffffffffffffff16815250600660008201518160000160006101000a8154817bffffffffffffffffffffffffffffffffffffffffffffffffffffffff02191690837bffffffffffffffffffffffffffffffffffffffffffffffffffffffff16021790555090505060405180602001604052808263ffffffff16600254890381610bca57fe5b047bffffffffffffffffffffffffffffffffffffffffffffffffffffffff16815250600760008201518160000160006101000a8154817bffffffffffffffffffffffffffffffffffffffffffffffffffffffff02191690837bffffffffffffffffffffffffffffffffffffffffffffffffffffffff16021790555090505060405180602001604052808263ffffffff16600354860381610c6657fe5b047bffffffffffffffffffffffffffffffffffffffffffffffffffffffff16815250600860008201518160000160006101000a8154817bffffffffffffffffffffffffffffffffffffffffffffffffffffffff02191690837bffffffffffffffffffffffffffffffffffffffffffffffffffffffff1602179055509050508660008190555083600181905550856002819055508260038190555084600460006101000a81548163ffffffff021916908363ffffffff16021790555050505050505050565b60058060000160009054906101000a90047bffffffffffffffffffffffffffffffffffffffffffffffffffffffff16905081565b60025481565b607881565b60078060000160009054906101000a90047bffffffffffffffffffffffffffffffffffffffffffffffffffffffff16905081565b600460009054906101000a900463ffffffff1681565b7f000000000000000000000000000000000000000000000000000000000000000081565b7f000000000000000000000000000000000000000000000000000000000000000081565b60035481565b610e0961127c565b600080831480610e6a575083600001517bffffffffffffffffffffffffffffffffffffffffffffffffffffffff16838486600001517bffffffffffffffffffffffffffffffffffffffffffffffffffffffff160292508281610e6757fe5b04145b610ebf576040517f08c379a00000000000000000000000000000000000000000000000000000000081526004018080602001828103825260238152602001806116016023913960400191505060405180910390fd5b60405180602001604052808281525091505092915050565b6000607060ff168260000151901c9050919050565b6000806000610ef9611137565b90508373ffffffffffffffffffffffffffffffffffffffff16635909c0d56040518163ffffffff1660e01b815260040160206040518083038186803b158015610f4157600080fd5b505afa158015610f55573d6000803e3d6000fd5b505050506040513d6020811015610f6b57600080fd5b810190808051906020019092919050505092508373ffffffffffffffffffffffffffffffffffffffff16635a3d54936040518163ffffffff1660e01b815260040160206040518083038186803b158015610fc457600080fd5b505afa158015610fd8573d6000803e3d6000fd5b505050506040513d6020811015610fee57600080fd5b8101908080519060200190929190505050915060008060008673ffffffffffffffffffffffffffffffffffffffff16630902f1ac6040518163ffffffff1660e01b815260040160606040518083038186803b15801561104c57600080fd5b505afa158015611060573d6000803e3d6000fd5b505050506040513d606081101561107657600080fd5b810190808051906020019092919080519060200190929190805190602001909291905050509250925092508363ffffffff168163ffffffff161461112d57600081850390508063ffffffff166110cc848661114d565b600001517bffffffffffffffffffffffffffffffffffffffffffffffffffffffff1602870196508063ffffffff16611104858561114d565b600001517bffffffffffffffffffffffffffffffffffffffffffffffffffffffff160286019550505b5050509193909250565b6000640100000000428161114757fe5b06905090565b61115561128f565b6000826dffffffffffffffffffffffffffff16116111db576040517f08c379a00000000000000000000000000000000000000000000000000000000081526004018080602001828103825260178152602001807f4669786564506f696e743a204449565f42595f5a45524f00000000000000000081525060200191505060405180910390fd5b6040518060200160405280836dffffffffffffffffffffffffffff16607060ff16866dffffffffffffffffffffffffffff167bffffffffffffffffffffffffffffffffffffffffffffffffffffffff16901b7bffffffffffffffffffffffffffffffffffffffffffffffffffffffff168161125257fe5b047bffffffffffffffffffffffffffffffffffffffffffffffffffffffff16815250905092915050565b6040518060200160405280600081525090565b604051806020016040528060007bffffffffffffffffffffffffffffffffffffffffffffffffffffffff1681525090565b60008060006112cf858561141b565b91509150858282604051602001808373ffffffffffffffffffffffffffffffffffffffff1673ffffffffffffffffffffffffffffffffffffffff1660601b81526014018273ffffffffffffffffffffffffffffffffffffffff1673ffffffffffffffffffffffffffffffffffffffff1660601b8152601401925050506040516020818303038152906040528051906020012060405160200180807fff000000000000000000000000000000000000000000000000000000000000008152506001018373ffffffffffffffffffffffffffffffffffffffff1673ffffffffffffffffffffffffffffffffffffffff1660601b8152601401828152602001807f96e8ac4277198ff8b6f785478aa9a39f403cb768dd02cbee326c3e7da348845f815250602001925050506040516020818303038152906040528051906020012060001c925050509392505050565b6000808273ffffffffffffffffffffffffffffffffffffffff168473ffffffffffffffffffffffffffffffffffffffff1614156114a3576040517f08c379a00000000000000000000000000000000000000000000000000000000081526004018080602001828103825260258152602001806115936025913960400191505060405180910390fd5b8273ffffffffffffffffffffffffffffffffffffffff168473ffffffffffffffffffffffffffffffffffffffff16106114dd5782846114e0565b83835b8092508193505050600073ffffffffffffffffffffffffffffffffffffffff168273ffffffffffffffffffffffffffffffffffffffff16141561158b576040517f08c379a000000000000000000000000000000000000000000000000000000000815260040180806020018281038252601e8152602001807f556e697377617056324c6962726172793a205a45524f5f41444452455353000081525060200191505060405180910390fd5b925092905056fe556e697377617056324c6962726172793a204944454e544943414c5f4144445245535345534578616d706c654f7261636c6553696d706c653a20494e56414c49445f544f4b454e4578616d706c654f7261636c6553696d706c653a20504552494f445f4e4f545f454c41505345444669786564506f696e743a204d554c5449504c49434154494f4e5f4f564552464c4f57a26469706673582212203e92e2d58892ca416cc11ad0abbfc71940eb802661139bea61dfd6fc4d257a7f64736f6c63430006060033556e697377617056324c6962726172793a204944454e544943414c5f414444524553534553",
  "immutableReferences": {
    "174": [
      {
        "length": 32,
        "start": 2332
      }
    ],
    "176": [
      {
        "length": 32,
        "start": 2384
      }
    ],
    "178": [
      {
        "length": 32,
        "start": 1218
      },
      {
        "length": 32,
        "start": 1606
      }
    ],
    "180": [
      {
        "length": 32,
        "start": 1866
      },
      {
        "length": 32,
        "start": 3545
      }
    ],
    "182": [
      {
        "length": 32,
        "start": 3509
      }
    ]
  },
  "source": "pragma solidity =0.6.6;\n\nimport '@uniswap/v2-core/contracts/interfaces/IUniswapV2Factory.sol';\nimport '@uniswap/v2-core/contracts/interfaces/IUniswapV2Pair.sol';\nimport '@uniswap/lib/contracts/libraries/FixedPoint.sol';\nimport '@uniswap/v2-periphery/contracts/libraries/UniswapV2OracleLibrary.sol';\nimport '@uniswap/v2-periphery/contracts/libraries/UniswapV2Library.sol';\n\n// fixed window oracle that recomputes the average price for the entire period once every period\n// note that the price average is only guaranteed to be over at least 1 period, but may be over a longer period\ncontract DAIOracle {\n    using FixedPoint for *;\n\n    uint public constant PERIOD = 2 minutes;\n\n    IUniswapV2Pair immutable pair0;\n    IUniswapV2Pair immutable pair1;\n    address public immutable token0;\n    address public immutable token1;\n    address public immutable tokenDAI;\n\n    uint    public price0CumulativeLast;\n    uint    public price1CumulativeLast;\n    uint    public priceDAI1CumulativeLast;\n    uint    public priceDAI2CumulativeLast;\n    uint32  public blockTimestampLast;\n\n    FixedPoint.uq112x112 public price0Average;\n    FixedPoint.uq112x112 public price1Average;\n    FixedPoint.uq112x112 public priceDAI1Average;\n    FixedPoint.uq112x112 public priceDAI2Average;\n\n    constructor(address factory, address tokenA, address tokenB, address dai) public {\n        // Set A\n        IUniswapV2Pair _pair0 = IUniswapV2Pair(UniswapV2Library.pairFor(factory, tokenA, dai));\n        pair0 = _pair0;\n        token0 = _pair0.token0();\n        tokenDAI = _pair0.token1();\n        price0CumulativeLast = _pair0.price0CumulativeLast(); // fetch the current accumulated price value (1 / 0)\n        priceDAI1CumulativeLast = _pair0.price1CumulativeLast(); // fetch the current accumulated price value (0 / 1)\n        uint112 reserve0;\n        uint112 reserve1;\n        (reserve0, reserve1, blockTimestampLast) = _pair0.getReserves();\n        require(reserve0 != 0 && reserve1 != 0, 'ExampleOracleSimple: NO_RESERVES'); // ensure that there's liquidity in the pair\n\n\n        // Set B\n        IUniswapV2Pair _pair1 = IUniswapV2Pair(UniswapV2Library.pairFor(factory, tokenB, dai));\n        pair1 = _pair1;\n        token1 = _pair1.token0();\n        //  if tokenDAI == _pair1.token1() true??\n        price1CumulativeLast = _pair1.price0CumulativeLast(); // fetch the current accumulated price value (1 / 0)\n        priceDAI2CumulativeLast = _pair1.price1CumulativeLast(); // fetch the current accumulated price value (0 / 1)\n        uint112 reserve2;\n        uint112 reserve3;\n        (reserve2, reserve3, blockTimestampLast) = _pair1.getReserves();\n        require(reserve2 != 0 && reserve3 != 0, 'ExampleOracleSimple: NO_RESERVES'); // ensure that there's liquidity in the pair\n    }\n\n    function update() external {\n        (uint price0Cumulative, uint priceDAI1Cumulative, uint32 blockTimestamp) =\n            UniswapV2OracleLibrary.currentCumulativePrices(address(pair0));\n        (uint price1Cumulative, uint priceDAI2Cumulative, uint32 blockTimestamp1) =\n        UniswapV2OracleLibrary.currentCumulativePrices(address(pair1));\n\n        require(blockTimestamp == blockTimestamp1, 'blockTimestamp must be same');\n        uint32 timeElapsed = blockTimestamp - blockTimestampLast; // overflow is desired\n\n        // ensure that at least one full period has passed since the last update\n        require(timeElapsed >= PERIOD, 'ExampleOracleSimple: PERIOD_NOT_ELAPSED');\n\n        // overflow is desired, casting never truncates\n        // cumulative price is in (uq112x112 price * seconds) units so we simply wrap it after division by time elapsed\n        price0Average = FixedPoint.uq112x112(uint224((price0Cumulative - price0CumulativeLast) / timeElapsed));\n        price1Average = FixedPoint.uq112x112(uint224((price1Cumulative - price1CumulativeLast) / timeElapsed));\n        priceDAI1Average = FixedPoint.uq112x112(uint224((priceDAI1Cumulative - priceDAI1CumulativeLast) / timeElapsed));\n        priceDAI2Average = FixedPoint.uq112x112(uint224((priceDAI2Cumulative - priceDAI2CumulativeLast) / timeElapsed));\n\n        price0CumulativeLast = price0Cumulative;\n        price1CumulativeLast = price1Cumulative;\n        priceDAI1CumulativeLast = priceDAI1Cumulative;\n        priceDAI2CumulativeLast = priceDAI2Cumulative;\n        blockTimestampLast = blockTimestamp;\n    }\n\n    // note this will always return 0 before update has been called successfully for the first time.\n    function consult(address token, uint amountIn) external view returns (uint amountOut) {\n        if (token == token0) {\n            amountOut = price0Average.mul(amountIn).decode144();\n        } else {\n            require(token == token1, 'ExampleOracleSimple: INVALID_TOKEN');\n            amountOut = price1Average.mul(amountIn).decode144();\n        }\n    }\n\n    function consultDAI(uint amountIn) external view returns (uint amount1Out, uint amount2Out) {\n            amount1Out = priceDAI1Average.mul(amountIn).decode144();\n            amount2Out = priceDAI2Average.mul(amountIn).decode144();\n    }\n}",
  "sourcePath": "/Users/daehyun/workspace/practices/openzeppelin-erc20/contracts/DAIOracle.sol",
  "compiler": {
    "name": "solc",
    "version": "0.6.6+commit.6c089d02.Emscripten.clang"
  },
  "schemaVersion": "3.2.5",
  "updatedAt": "2020-09-20T10:23:08.509Z",
  "devdoc": {
    "methods": {}
  },
  "userdoc": {
    "methods": {}
  }
}